{
  "contractName": "DisputeManager",
  "abi": [
    {
      "inputs": [
        {
          "internalType": "address",
          "name": "_tenant",
          "type": "address"
        },
        {
          "internalType": "address",
          "name": "_arbitrator",
          "type": "address"
        }
      ],
      "stateMutability": "nonpayable",
      "type": "constructor"
    },
    {
      "anonymous": false,
      "inputs": [
        {
          "indexed": true,
          "internalType": "uint256",
          "name": "disputeId",
          "type": "uint256"
        },
        {
          "indexed": true,
          "internalType": "address",
          "name": "filedBy",
          "type": "address"
        },
        {
          "indexed": true,
          "internalType": "address",
          "name": "against",
          "type": "address"
        },
        {
          "indexed": false,
          "internalType": "string",
          "name": "description",
          "type": "string"
        },
        {
          "indexed": false,
          "internalType": "uint256",
          "name": "timestamp",
          "type": "uint256"
        }
      ],
      "name": "DisputeCreated",
      "type": "event"
    },
    {
      "anonymous": false,
      "inputs": [
        {
          "indexed": true,
          "internalType": "uint256",
          "name": "disputeId",
          "type": "uint256"
        },
        {
          "indexed": true,
          "internalType": "address",
          "name": "resolvedBy",
          "type": "address"
        },
        {
          "indexed": false,
          "internalType": "string",
          "name": "resolution",
          "type": "string"
        },
        {
          "indexed": false,
          "internalType": "uint256",
          "name": "timestamp",
          "type": "uint256"
        }
      ],
      "name": "DisputeResolved",
      "type": "event"
    },
    {
      "anonymous": false,
      "inputs": [
        {
          "indexed": true,
          "internalType": "uint256",
          "name": "disputeId",
          "type": "uint256"
        },
        {
          "indexed": false,
          "internalType": "enum DisputeManager.DisputeStatus",
          "name": "newStatus",
          "type": "uint8"
        },
        {
          "indexed": false,
          "internalType": "address",
          "name": "updatedBy",
          "type": "address"
        },
        {
          "indexed": false,
          "internalType": "uint256",
          "name": "timestamp",
          "type": "uint256"
        }
      ],
      "name": "DisputeStatusUpdated",
      "type": "event"
    },
    {
      "inputs": [],
      "name": "arbitrator",
      "outputs": [
        {
          "internalType": "address",
          "name": "",
          "type": "address"
        }
      ],
      "stateMutability": "view",
      "type": "function",
      "constant": true
    },
    {
      "inputs": [],
      "name": "disputeCount",
      "outputs": [
        {
          "internalType": "uint256",
          "name": "",
          "type": "uint256"
        }
      ],
      "stateMutability": "view",
      "type": "function",
      "constant": true
    },
    {
      "inputs": [
        {
          "internalType": "uint256",
          "name": "",
          "type": "uint256"
        }
      ],
      "name": "disputes",
      "outputs": [
        {
          "internalType": "uint256",
          "name": "id",
          "type": "uint256"
        },
        {
          "internalType": "address",
          "name": "filedBy",
          "type": "address"
        },
        {
          "internalType": "address",
          "name": "against",
          "type": "address"
        },
        {
          "internalType": "string",
          "name": "description",
          "type": "string"
        },
        {
          "internalType": "string",
          "name": "resolution",
          "type": "string"
        },
        {
          "internalType": "enum DisputeManager.DisputeStatus",
          "name": "status",
          "type": "uint8"
        },
        {
          "internalType": "uint256",
          "name": "createdAt",
          "type": "uint256"
        },
        {
          "internalType": "uint256",
          "name": "resolvedAt",
          "type": "uint256"
        },
        {
          "internalType": "address",
          "name": "resolvedBy",
          "type": "address"
        }
      ],
      "stateMutability": "view",
      "type": "function",
      "constant": true
    },
    {
      "inputs": [],
      "name": "landlord",
      "outputs": [
        {
          "internalType": "address",
          "name": "",
          "type": "address"
        }
      ],
      "stateMutability": "view",
      "type": "function",
      "constant": true
    },
    {
      "inputs": [],
      "name": "tenant",
      "outputs": [
        {
          "internalType": "address",
          "name": "",
          "type": "address"
        }
      ],
      "stateMutability": "view",
      "type": "function",
      "constant": true
    },
    {
      "inputs": [
        {
          "internalType": "string",
          "name": "_description",
          "type": "string"
        }
      ],
      "name": "createDispute",
      "outputs": [
        {
          "internalType": "uint256",
          "name": "",
          "type": "uint256"
        }
      ],
      "stateMutability": "nonpayable",
      "type": "function"
    },
    {
      "inputs": [
        {
          "internalType": "uint256",
          "name": "_disputeId",
          "type": "uint256"
        },
        {
          "internalType": "enum DisputeManager.DisputeStatus",
          "name": "_newStatus",
          "type": "uint8"
        }
      ],
      "name": "updateDisputeStatus",
      "outputs": [],
      "stateMutability": "nonpayable",
      "type": "function"
    },
    {
      "inputs": [
        {
          "internalType": "uint256",
          "name": "_disputeId",
          "type": "uint256"
        },
        {
          "internalType": "string",
          "name": "_resolution",
          "type": "string"
        }
      ],
      "name": "resolveDispute",
      "outputs": [],
      "stateMutability": "nonpayable",
      "type": "function"
    },
    {
      "inputs": [
        {
          "internalType": "uint256",
          "name": "_disputeId",
          "type": "uint256"
        }
      ],
      "name": "getDispute",
      "outputs": [
        {
          "internalType": "address",
          "name": "filedBy",
          "type": "address"
        },
        {
          "internalType": "address",
          "name": "against",
          "type": "address"
        },
        {
          "internalType": "string",
          "name": "description",
          "type": "string"
        },
        {
          "internalType": "string",
          "name": "resolution",
          "type": "string"
        },
        {
          "internalType": "enum DisputeManager.DisputeStatus",
          "name": "status",
          "type": "uint8"
        },
        {
          "internalType": "uint256",
          "name": "createdAt",
          "type": "uint256"
        },
        {
          "internalType": "uint256",
          "name": "resolvedAt",
          "type": "uint256"
        },
        {
          "internalType": "address",
          "name": "resolvedBy",
          "type": "address"
        }
      ],
      "stateMutability": "view",
      "type": "function",
      "constant": true
    },
    {
      "inputs": [],
      "name": "getAllDisputes",
      "outputs": [
        {
          "internalType": "uint256[]",
          "name": "ids",
          "type": "uint256[]"
        },
        {
          "internalType": "address[]",
          "name": "filedBy",
          "type": "address[]"
        },
        {
          "internalType": "string[]",
          "name": "descriptions",
          "type": "string[]"
        },
        {
          "internalType": "enum DisputeManager.DisputeStatus[]",
          "name": "statuses",
          "type": "uint8[]"
        },
        {
          "internalType": "uint256[]",
          "name": "createdAt",
          "type": "uint256[]"
        }
      ],
      "stateMutability": "view",
      "type": "function",
      "constant": true
    },
    {
      "inputs": [
        {
          "internalType": "address",
          "name": "_party",
          "type": "address"
        }
      ],
      "name": "getDisputesByParty",
      "outputs": [
        {
          "internalType": "uint256[]",
          "name": "",
          "type": "uint256[]"
        }
      ],
      "stateMutability": "view",
      "type": "function",
      "constant": true
    },
    {
      "inputs": [],
      "name": "getOpenDisputeCount",
      "outputs": [
        {
          "internalType": "uint256",
          "name": "",
          "type": "uint256"
        }
      ],
      "stateMutability": "view",
      "type": "function",
      "constant": true
    },
    {
      "inputs": [
        {
          "internalType": "address",
          "name": "_newArbitrator",
          "type": "address"
        }
      ],
      "name": "setArbitrator",
      "outputs": [],
      "stateMutability": "nonpayable",
      "type": "function"
    }
  ],
  "bytecode": "0x60806040523480156200001157600080fd5b5060405162001933380380620019338339810160408190526200003491620000ef565b6001600160a01b0382166200008f5760405162461bcd60e51b815260206004820152601660248201527f496e76616c69642074656e616e74206164647265737300000000000000000000604482015260640160405180910390fd5b600080546001600160a01b031990811633178255600180546001600160a01b03958616908316179055600280549390941692169190911790915560045562000127565b80516001600160a01b0381168114620000ea57600080fd5b919050565b600080604083850312156200010357600080fd5b6200010e83620000d2565b91506200011e60208401620000d2565b90509250929050565b6117fc80620001376000396000f3fe608060405234801561001057600080fd5b50600436106100cf5760003560e01c8063a9a13bd01161008c578063ca7f081c11610066578063ca7f081c146101c3578063cf51b45d146101d6578063dc1997ea146101e9578063e3a96cbd146101fc57600080fd5b8063a9a13bd01461017b578063adf077911461019b578063b0eefabe146101ae57600080fd5b80631dd9997f146100d45780635157a089146100f6578063564a565d1461010c57806368175996146101345780636cc6cde114610147578063a28889e114610172575b600080fd5b6100dc610223565b6040516100ed959493929190611233565b60405180910390f35b6100fe61054f565b6040519081526020016100ed565b61011f61011a36600461130f565b6105e3565b6040516100ed99989796959493929190611328565b6100fe610142366004611447565b610756565b60025461015a906001600160a01b031681565b6040516001600160a01b0390911681526020016100ed565b6100fe60045481565b61018e610189366004611484565b610a26565b6040516100ed91906114ad565b60015461015a906001600160a01b031681565b6101c16101bc366004611484565b610b3c565b005b6101c16101d13660046114c0565b610bc6565b6101c16101e43660046114f4565b610d34565b60005461015a906001600160a01b031681565b61020f61020a36600461130f565b610f8c565b6040516100ed98979695949392919061153b565b606080606080606060045467ffffffffffffffff811115610246576102466113a4565b60405190808252806020026020018201604052801561026f578160200160208202803683370190505b50945060045467ffffffffffffffff81111561028d5761028d6113a4565b6040519080825280602002602001820160405280156102b6578160200160208202803683370190505b50935060045467ffffffffffffffff8111156102d4576102d46113a4565b60405190808252806020026020018201604052801561030757816020015b60608152602001906001900390816102f25790505b50925060045467ffffffffffffffff811115610325576103256113a4565b60405190808252806020026020018201604052801561034e578160200160208202803683370190505b50915060045467ffffffffffffffff81111561036c5761036c6113a4565b604051908082528060200260200182016040528015610395578160200160208202803683370190505b50905060005b600454811015610547576000818152600360205260409020805487518890849081106103c9576103c96115af565b6020908102919091010152600181015486516001600160a01b03909116908790849081106103f9576103f96115af565b60200260200101906001600160a01b031690816001600160a01b031681525050806003018054610428906115c5565b80601f0160208091040260200160405190810160405280929190818152602001828054610454906115c5565b80156104a15780601f10610476576101008083540402835291602001916104a1565b820191906000526020600020905b81548152906001019060200180831161048457829003601f168201915b50505050508583815181106104b8576104b86115af565b60209081029190910101526005810154845160ff909116908590849081106104e2576104e26115af565b602002602001019060038111156104fb576104fb6111c4565b9081600381111561050e5761050e6111c4565b815250508060060154838381518110610529576105296115af565b6020908102919091010152508061053f8161160f565b91505061039b565b509091929394565b600080805b6004548110156105dd57600081815260036020819052604082206005015460ff1690811115610585576105856111c4565b14806105b85750600160008281526003602081905260409091206005015460ff16908111156105b6576105b66111c4565b145b156105cb57816105c78161160f565b9250505b806105d58161160f565b915050610554565b50919050565b6003602081905260009182526040909120805460018201546002830154938301805492946001600160a01b039283169492169261061f906115c5565b80601f016020809104026020016040519081016040528092919081815260200182805461064b906115c5565b80156106985780601f1061066d57610100808354040283529160200191610698565b820191906000526020600020905b81548152906001019060200180831161067b57829003601f168201915b5050505050908060040180546106ad906115c5565b80601f01602080910402602001604051908101604052809291908181526020018280546106d9906115c5565b80156107265780601f106106fb57610100808354040283529160200191610726565b820191906000526020600020905b81548152906001019060200180831161070957829003601f168201915b50505050600583015460068401546007850154600890950154939460ff909216939092506001600160a01b031689565b600080546001600160a01b031633148061077a57506001546001600160a01b031633145b6107e15760405162461bcd60e51b815260206004820152602d60248201527f4f6e6c7920636f6e747261637420706172746965732063616e20706572666f7260448201526c36903a3434b99030b1ba34b7b760991b60648201526084015b60405180910390fd5b60008251116108325760405162461bcd60e51b815260206004820152601b60248201527f4465736372697074696f6e2063616e6e6f7420626520656d707479000000000060448201526064016107d8565b600080546001600160a01b03163314610856576000546001600160a01b0316610863565b6001546001600160a01b03165b90506040518061012001604052806004548152602001336001600160a01b03168152602001826001600160a01b03168152602001848152602001604051806020016040528060008152508152602001600060038111156108c5576108c56111c4565b815242602080830191909152600060408084018290526060938401829052600454825260038084529181902085518155928501516001840180546001600160a01b03199081166001600160a01b039384161790915591860151600285018054909316911617905591830151909182019061093f9082611677565b50608082015160048201906109549082611677565b5060a082015160058201805460ff19166001836003811115610978576109786111c4565b021790555060c0820151600682015560e0820151600782015561010090910151600890910180546001600160a01b0319166001600160a01b03928316179055600454604051918316913391907f6fae3a56b604a336725ff2553d39a2e582989533b70b7b461b0a9ffd47b95db9906109f39088904290611737565b60405180910390a460048054906000610a0b8361160f565b91905055506001600454610a1f9190611759565b9392505050565b60606000805b600454811015610a7a576000818152600360205260409020600101546001600160a01b03808616911603610a685781610a648161160f565b9250505b80610a728161160f565b915050610a2c565b5060008167ffffffffffffffff811115610a9657610a966113a4565b604051908082528060200260200182016040528015610abf578160200160208202803683370190505b5090506000805b600454811015610b32576000818152600360205260409020600101546001600160a01b03808816911603610b205780838381518110610b0757610b076115af565b602090810291909101015281610b1c8161160f565b9250505b80610b2a8161160f565b915050610ac6565b5090949350505050565b6000546001600160a01b03163314610ba45760405162461bcd60e51b815260206004820152602560248201527f4f6e6c79206c616e646c6f72642063616e20706572666f726d2074686973206160448201526431ba34b7b760d91b60648201526084016107d8565b600280546001600160a01b0319166001600160a01b0392909216919091179055565b6000546001600160a01b0316331480610be957506001546001600160a01b031633145b80610bfe57506002546001600160a01b031633145b610c3b5760405162461bcd60e51b815260206004820152600e60248201526d139bdd08185d5d1a1bdc9a5e995960921b60448201526064016107d8565b6004548210610c5c5760405162461bcd60e51b81526004016107d890611772565b60008281526003602052604090206002600582015460ff166003811115610c8557610c856111c4565b03610ccd5760405162461bcd60e51b8152602060048201526018602482015277111a5cdc1d5d1948185b1c9958591e481c995cdbdb1d995960421b60448201526064016107d8565b60058101805483919060ff19166001836003811115610cee57610cee6111c4565b0217905550827f1553beb6e0e34a2149441f4f10a98d2c819cb47871a9332a36e6b4bdde9f1a4b833342604051610d279392919061179e565b60405180910390a2505050565b6000546001600160a01b0316331480610d5757506001546001600160a01b031633145b80610d6c57506002546001600160a01b031633145b610da95760405162461bcd60e51b815260206004820152600e60248201526d139bdd08185d5d1a1bdc9a5e995960921b60448201526064016107d8565b6004548210610dca5760405162461bcd60e51b81526004016107d890611772565b6000815111610e1b5760405162461bcd60e51b815260206004820152601a60248201527f5265736f6c7574696f6e2063616e6e6f7420626520656d70747900000000000060448201526064016107d8565b60008281526003602052604090206002600582015460ff166003811115610e4457610e446111c4565b03610e8c5760405162461bcd60e51b8152602060048201526018602482015277111a5cdc1d5d1948185b1c9958591e481c995cdbdb1d995960421b60448201526064016107d8565b6002546001600160a01b0316331480610eb1575060028101546001600160a01b031633145b610f0c5760405162461bcd60e51b815260206004820152602660248201527f4e6f7420617574686f72697a656420746f207265736f6c76652074686973206460448201526569737075746560d01b60648201526084016107d8565b60048101610f1a8382611677565b5060058101805460ff191660021790554260078201819055600882018054336001600160a01b03199091168117909155604051909185917faf22c8b9970a1e934469d4910ba635081d805cf60a06f96c00d501bd8737966391610f7f91879190611737565b60405180910390a3505050565b6000806060806000806000806004548910610fb95760405162461bcd60e51b81526004016107d890611772565b6000898152600360208190526040909120600181015460028201546005830154600684015460078501546008860154968601805496976001600160a01b039687169795871696919560048a019560ff1694939290911690869061101b906115c5565b80601f0160208091040260200160405190810160405280929190818152602001828054611047906115c5565b80156110945780601f1061106957610100808354040283529160200191611094565b820191906000526020600020905b81548152906001019060200180831161107757829003601f168201915b505050505095508480546110a7906115c5565b80601f01602080910402602001604051908101604052809291908181526020018280546110d3906115c5565b80156111205780601f106110f557610100808354040283529160200191611120565b820191906000526020600020905b81548152906001019060200180831161110357829003601f168201915b505050505094509850985098509850985098509850985050919395975091939597565b600081518084526020808501945080840160005b8381101561117357815187529582019590820190600101611157565b509495945050505050565b6000815180845260005b818110156111a457602081850181015186830182015201611188565b506000602082860101526020601f19601f83011685010191505092915050565b634e487b7160e01b600052602160045260246000fd5b600481106111f857634e487b7160e01b600052602160045260246000fd5b9052565b600081518084526020808501945080840160005b83811015611173576112238783516111da565b9582019590820190600101611210565b60a08152600061124660a0830188611143565b82810360208481019190915287518083528882019282019060005b818110156112865784516001600160a01b031683529383019391830191600101611261565b5050848103604086015287518082528282019350600581901b82018301838a0160005b838110156112d757601f198584030187526112c583835161117e565b968601969250908501906001016112a9565b505086810360608801526112eb818a6111fc565b94505050505082810360808401526113038185611143565b98975050505050505050565b60006020828403121561132157600080fd5b5035919050565b8981526001600160a01b03898116602083015288811660408301526101206060830181905260009161135c8483018b61117e565b91508382036080850152611370828a61117e565b925061137f60a08501896111da565b8660c08501528560e085015280851661010085015250509a9950505050505050505050565b634e487b7160e01b600052604160045260246000fd5b600082601f8301126113cb57600080fd5b813567ffffffffffffffff808211156113e6576113e66113a4565b604051601f8301601f19908116603f0116810190828211818310171561140e5761140e6113a4565b8160405283815286602085880101111561142757600080fd5b836020870160208301376000602085830101528094505050505092915050565b60006020828403121561145957600080fd5b813567ffffffffffffffff81111561147057600080fd5b61147c848285016113ba565b949350505050565b60006020828403121561149657600080fd5b81356001600160a01b0381168114610a1f57600080fd5b602081526000610a1f6020830184611143565b600080604083850312156114d357600080fd5b823591506020830135600481106114e957600080fd5b809150509250929050565b6000806040838503121561150757600080fd5b82359150602083013567ffffffffffffffff81111561152557600080fd5b611531858286016113ba565b9150509250929050565b6001600160a01b0389811682528881166020830152610100604083018190526000916115698483018b61117e565b9150838203606085015261157d828a61117e565b925061158c60808501896111da565b8660a08501528560c085015280851660e085015250509998505050505050505050565b634e487b7160e01b600052603260045260246000fd5b600181811c908216806115d957607f821691505b6020821081036105dd57634e487b7160e01b600052602260045260246000fd5b634e487b7160e01b600052601160045260246000fd5b600060018201611621576116216115f9565b5060010190565b601f82111561167257600081815260208120601f850160051c8101602086101561164f5750805b601f850160051c820191505b8181101561166e5782815560010161165b565b5050505b505050565b815167ffffffffffffffff811115611691576116916113a4565b6116a58161169f84546115c5565b84611628565b602080601f8311600181146116da57600084156116c25750858301515b600019600386901b1c1916600185901b17855561166e565b600085815260208120601f198616915b82811015611709578886015182559484019460019091019084016116ea565b50858210156117275787850151600019600388901b60f8161c191681555b5050505050600190811b01905550565b60408152600061174a604083018561117e565b90508260208301529392505050565b8181038181111561176c5761176c6115f9565b92915050565b602080825260129082015271125b9d985b1a5908191a5cdc1d5d1948125160721b604082015260600190565b606081016117ac82866111da565b6001600160a01b039390931660208201526040015291905056fea26469706673582212207394a02a92c5aef9290c92291b8a7b62348debecea791e9973af868ecd16a45c64736f6c63430008130033",
  "immutableReferences": {},
  "source": "// SPDX-License-Identifier: MIT\r\npragma solidity ^0.8.0;\r\n\r\n/**\r\n * @title DisputeManager\r\n * @dev Manages dispute creation, resolution, and tracking for rental contracts\r\n */\r\ncontract DisputeManager {\r\n    \r\n    // Dispute status\r\n    enum DisputeStatus { Open, InReview, Resolved, Rejected }\r\n    \r\n    // Dispute structure\r\n    struct Dispute {\r\n        uint256 id;\r\n        address filedBy;\r\n        address against;\r\n        string description;\r\n        string resolution;\r\n        DisputeStatus status;\r\n        uint256 createdAt;\r\n        uint256 resolvedAt;\r\n        address resolvedBy;\r\n    }\r\n    \r\n    // Contract parties\r\n    address public landlord;\r\n    address public tenant;\r\n    address public arbitrator; // Optional third-party arbitrator\r\n    \r\n    // Dispute tracking\r\n    mapping(uint256 => Dispute) public disputes;\r\n    uint256 public disputeCount;\r\n    \r\n    // Events\r\n    event DisputeCreated(\r\n        uint256 indexed disputeId,\r\n        address indexed filedBy,\r\n        address indexed against,\r\n        string description,\r\n        uint256 timestamp\r\n    );\r\n    \r\n    event DisputeStatusUpdated(\r\n        uint256 indexed disputeId,\r\n        DisputeStatus newStatus,\r\n        address updatedBy,\r\n        uint256 timestamp\r\n    );\r\n    \r\n    event DisputeResolved(\r\n        uint256 indexed disputeId,\r\n        address indexed resolvedBy,\r\n        string resolution,\r\n        uint256 timestamp\r\n    );\r\n    \r\n    // Modifiers\r\n    modifier onlyLandlord() {\r\n        require(msg.sender == landlord, \"Only landlord can perform this action\");\r\n        _;\r\n    }\r\n    \r\n    modifier onlyTenant() {\r\n        require(msg.sender == tenant, \"Only tenant can perform this action\");\r\n        _;\r\n    }\r\n    \r\n    modifier onlyParties() {\r\n        require(\r\n            msg.sender == landlord || msg.sender == tenant,\r\n            \"Only contract parties can perform this action\"\r\n        );\r\n        _;\r\n    }\r\n    \r\n    modifier onlyArbitrator() {\r\n        require(msg.sender == arbitrator, \"Only arbitrator can perform this action\");\r\n        _;\r\n    }\r\n    \r\n    modifier onlyAuthorized() {\r\n        require(\r\n            msg.sender == landlord || msg.sender == tenant || msg.sender == arbitrator,\r\n            \"Not authorized\"\r\n        );\r\n        _;\r\n    }\r\n    \r\n    /**\r\n     * @dev Constructor to initialize dispute manager\r\n     * @param _tenant Address of the tenant\r\n     * @param _arbitrator Optional arbitrator address (can be address(0))\r\n     */\r\n    constructor(address _tenant, address _arbitrator) {\r\n        require(_tenant != address(0), \"Invalid tenant address\");\r\n        \r\n        landlord = msg.sender;\r\n        tenant = _tenant;\r\n        arbitrator = _arbitrator;\r\n        disputeCount = 0;\r\n    }\r\n    \r\n    /**\r\n     * @dev Create a new dispute\r\n     * @param _description Description of the dispute issue\r\n     */\r\n    function createDispute(string memory _description) external onlyParties returns (uint256) {\r\n        require(bytes(_description).length > 0, \"Description cannot be empty\");\r\n        \r\n        address against = (msg.sender == landlord) ? tenant : landlord;\r\n        \r\n        disputes[disputeCount] = Dispute({\r\n            id: disputeCount,\r\n            filedBy: msg.sender,\r\n            against: against,\r\n            description: _description,\r\n            resolution: \"\",\r\n            status: DisputeStatus.Open,\r\n            createdAt: block.timestamp,\r\n            resolvedAt: 0,\r\n            resolvedBy: address(0)\r\n        });\r\n        \r\n        emit DisputeCreated(disputeCount, msg.sender, against, _description, block.timestamp);\r\n        \r\n        disputeCount++;\r\n        return disputeCount - 1;\r\n    }\r\n    \r\n    /**\r\n     * @dev Update dispute status\r\n     * @param _disputeId Dispute ID to update\r\n     * @param _newStatus New status to set\r\n     */\r\n    function updateDisputeStatus(uint256 _disputeId, DisputeStatus _newStatus) external onlyAuthorized {\r\n        require(_disputeId < disputeCount, \"Invalid dispute ID\");\r\n        \r\n        Dispute storage dispute = disputes[_disputeId];\r\n        require(dispute.status != DisputeStatus.Resolved, \"Dispute already resolved\");\r\n        \r\n        dispute.status = _newStatus;\r\n        \r\n        emit DisputeStatusUpdated(_disputeId, _newStatus, msg.sender, block.timestamp);\r\n    }\r\n    \r\n    /**\r\n     * @dev Resolve a dispute\r\n     * @param _disputeId Dispute ID to resolve\r\n     * @param _resolution Resolution description or outcome\r\n     */\r\n    function resolveDispute(uint256 _disputeId, string memory _resolution) external onlyAuthorized {\r\n        require(_disputeId < disputeCount, \"Invalid dispute ID\");\r\n        require(bytes(_resolution).length > 0, \"Resolution cannot be empty\");\r\n        \r\n        Dispute storage dispute = disputes[_disputeId];\r\n        require(dispute.status != DisputeStatus.Resolved, \"Dispute already resolved\");\r\n        \r\n        // Only arbitrator or the party against whom dispute was filed can resolve\r\n        require(\r\n            msg.sender == arbitrator || msg.sender == dispute.against,\r\n            \"Not authorized to resolve this dispute\"\r\n        );\r\n        \r\n        dispute.resolution = _resolution;\r\n        dispute.status = DisputeStatus.Resolved;\r\n        dispute.resolvedAt = block.timestamp;\r\n        dispute.resolvedBy = msg.sender;\r\n        \r\n        emit DisputeResolved(_disputeId, msg.sender, _resolution, block.timestamp);\r\n    }\r\n    \r\n    /**\r\n     * @dev Get dispute details\r\n     * @param _disputeId Dispute ID to query\r\n     */\r\n    function getDispute(uint256 _disputeId) external view returns (\r\n        address filedBy,\r\n        address against,\r\n        string memory description,\r\n        string memory resolution,\r\n        DisputeStatus status,\r\n        uint256 createdAt,\r\n        uint256 resolvedAt,\r\n        address resolvedBy\r\n    ) {\r\n        require(_disputeId < disputeCount, \"Invalid dispute ID\");\r\n        \r\n        Dispute storage dispute = disputes[_disputeId];\r\n        \r\n        return (\r\n            dispute.filedBy,\r\n            dispute.against,\r\n            dispute.description,\r\n            dispute.resolution,\r\n            dispute.status,\r\n            dispute.createdAt,\r\n            dispute.resolvedAt,\r\n            dispute.resolvedBy\r\n        );\r\n    }\r\n    \r\n    /**\r\n     * @dev Get all disputes for the contract\r\n     */\r\n    function getAllDisputes() external view returns (\r\n        uint256[] memory ids,\r\n        address[] memory filedBy,\r\n        string[] memory descriptions,\r\n        DisputeStatus[] memory statuses,\r\n        uint256[] memory createdAt\r\n    ) {\r\n        ids = new uint256[](disputeCount);\r\n        filedBy = new address[](disputeCount);\r\n        descriptions = new string[](disputeCount);\r\n        statuses = new DisputeStatus[](disputeCount);\r\n        createdAt = new uint256[](disputeCount);\r\n        \r\n        for (uint256 i = 0; i < disputeCount; i++) {\r\n            Dispute storage dispute = disputes[i];\r\n            ids[i] = dispute.id;\r\n            filedBy[i] = dispute.filedBy;\r\n            descriptions[i] = dispute.description;\r\n            statuses[i] = dispute.status;\r\n            createdAt[i] = dispute.createdAt;\r\n        }\r\n        \r\n        return (ids, filedBy, descriptions, statuses, createdAt);\r\n    }\r\n    \r\n    /**\r\n     * @dev Get disputes filed by a specific party\r\n     * @param _party Address of the party (landlord or tenant)\r\n     */\r\n    function getDisputesByParty(address _party) external view returns (uint256[] memory) {\r\n        uint256 count = 0;\r\n        \r\n        // Count disputes filed by party\r\n        for (uint256 i = 0; i < disputeCount; i++) {\r\n            if (disputes[i].filedBy == _party) {\r\n                count++;\r\n            }\r\n        }\r\n        \r\n        // Populate array\r\n        uint256[] memory disputeIds = new uint256[](count);\r\n        uint256 index = 0;\r\n        \r\n        for (uint256 i = 0; i < disputeCount; i++) {\r\n            if (disputes[i].filedBy == _party) {\r\n                disputeIds[index] = i;\r\n                index++;\r\n            }\r\n        }\r\n        \r\n        return disputeIds;\r\n    }\r\n    \r\n    /**\r\n     * @dev Get count of open disputes\r\n     */\r\n    function getOpenDisputeCount() external view returns (uint256) {\r\n        uint256 count = 0;\r\n        for (uint256 i = 0; i < disputeCount; i++) {\r\n            if (disputes[i].status == DisputeStatus.Open || disputes[i].status == DisputeStatus.InReview) {\r\n                count++;\r\n            }\r\n        }\r\n        return count;\r\n    }\r\n    \r\n    /**\r\n     * @dev Set arbitrator (only landlord can set)\r\n     * @param _newArbitrator Address of the new arbitrator\r\n     */\r\n    function setArbitrator(address _newArbitrator) external onlyLandlord {\r\n        arbitrator = _newArbitrator;\r\n    }\r\n}\r\n",
  "sourcePath": "C:\\Users\\NABIL\\Desktop\\pfa\\blockchain\\contracts\\DisputeManager.sol",
  "compiler": {
    "name": "solc",
    "version": "0.8.19+commit.7dd6d404.Emscripten.clang"
  },
  "schemaVersion": "3.4.16",
  "updatedAt": "2025-12-12T15:21:10.539Z",
  "networkType": "ethereum",
  "devdoc": {
    "details": "Manages dispute creation, resolution, and tracking for rental contracts",
    "kind": "dev",
    "methods": {
      "constructor": {
        "details": "Constructor to initialize dispute manager",
        "params": {
          "_arbitrator": "Optional arbitrator address (can be address(0))",
          "_tenant": "Address of the tenant"
        }
      },
      "createDispute(string)": {
        "details": "Create a new dispute",
        "params": {
          "_description": "Description of the dispute issue"
        }
      },
      "getAllDisputes()": {
        "details": "Get all disputes for the contract"
      },
      "getDispute(uint256)": {
        "details": "Get dispute details",
        "params": {
          "_disputeId": "Dispute ID to query"
        }
      },
      "getDisputesByParty(address)": {
        "details": "Get disputes filed by a specific party",
        "params": {
          "_party": "Address of the party (landlord or tenant)"
        }
      },
      "getOpenDisputeCount()": {
        "details": "Get count of open disputes"
      },
      "resolveDispute(uint256,string)": {
        "details": "Resolve a dispute",
        "params": {
          "_disputeId": "Dispute ID to resolve",
          "_resolution": "Resolution description or outcome"
        }
      },
      "setArbitrator(address)": {
        "details": "Set arbitrator (only landlord can set)",
        "params": {
          "_newArbitrator": "Address of the new arbitrator"
        }
      },
      "updateDisputeStatus(uint256,uint8)": {
        "details": "Update dispute status",
        "params": {
          "_disputeId": "Dispute ID to update",
          "_newStatus": "New status to set"
        }
      }
    },
    "title": "DisputeManager",
    "version": 1
  },
  "userdoc": {
    "kind": "user",
    "methods": {},
    "version": 1
  }
}