{
  "contractName": "PaymentManager",
  "abi": [
    {
      "inputs": [
        {
          "internalType": "address",
          "name": "_tenant",
          "type": "address"
        },
        {
          "internalType": "uint256",
          "name": "_rentAmount",
          "type": "uint256"
        },
        {
          "internalType": "uint256",
          "name": "_contractStartDate",
          "type": "uint256"
        },
        {
          "internalType": "uint256",
          "name": "_durationMonths",
          "type": "uint256"
        },
        {
          "internalType": "uint256",
          "name": "_penaltyRate",
          "type": "uint256"
        },
        {
          "internalType": "uint256",
          "name": "_gracePeriodDays",
          "type": "uint256"
        }
      ],
      "stateMutability": "nonpayable",
      "type": "constructor"
    },
    {
      "anonymous": false,
      "inputs": [
        {
          "indexed": false,
          "internalType": "uint256",
          "name": "numberOfPayments",
          "type": "uint256"
        }
      ],
      "name": "PaymentScheduleGenerated",
      "type": "event"
    },
    {
      "anonymous": false,
      "inputs": [
        {
          "indexed": true,
          "internalType": "uint256",
          "name": "paymentId",
          "type": "uint256"
        },
        {
          "indexed": false,
          "internalType": "uint256",
          "name": "penaltyAmount",
          "type": "uint256"
        }
      ],
      "name": "PenaltyApplied",
      "type": "event"
    },
    {
      "anonymous": false,
      "inputs": [
        {
          "indexed": true,
          "internalType": "uint256",
          "name": "paymentId",
          "type": "uint256"
        },
        {
          "indexed": true,
          "internalType": "address",
          "name": "paidBy",
          "type": "address"
        },
        {
          "indexed": false,
          "internalType": "uint256",
          "name": "amount",
          "type": "uint256"
        },
        {
          "indexed": false,
          "internalType": "uint256",
          "name": "penalty",
          "type": "uint256"
        },
        {
          "indexed": false,
          "internalType": "uint256",
          "name": "timestamp",
          "type": "uint256"
        }
      ],
      "name": "RentPaid",
      "type": "event"
    },
    {
      "inputs": [],
      "name": "contractStartDate",
      "outputs": [
        {
          "internalType": "uint256",
          "name": "",
          "type": "uint256"
        }
      ],
      "stateMutability": "view",
      "type": "function",
      "constant": true
    },
    {
      "inputs": [],
      "name": "gracePeriodDays",
      "outputs": [
        {
          "internalType": "uint256",
          "name": "",
          "type": "uint256"
        }
      ],
      "stateMutability": "view",
      "type": "function",
      "constant": true
    },
    {
      "inputs": [],
      "name": "landlord",
      "outputs": [
        {
          "internalType": "address payable",
          "name": "",
          "type": "address"
        }
      ],
      "stateMutability": "view",
      "type": "function",
      "constant": true
    },
    {
      "inputs": [],
      "name": "nextPaymentDue",
      "outputs": [
        {
          "internalType": "uint256",
          "name": "",
          "type": "uint256"
        }
      ],
      "stateMutability": "view",
      "type": "function",
      "constant": true
    },
    {
      "inputs": [],
      "name": "paymentCount",
      "outputs": [
        {
          "internalType": "uint256",
          "name": "",
          "type": "uint256"
        }
      ],
      "stateMutability": "view",
      "type": "function",
      "constant": true
    },
    {
      "inputs": [],
      "name": "paymentFrequencyDays",
      "outputs": [
        {
          "internalType": "uint256",
          "name": "",
          "type": "uint256"
        }
      ],
      "stateMutability": "view",
      "type": "function",
      "constant": true
    },
    {
      "inputs": [
        {
          "internalType": "uint256",
          "name": "",
          "type": "uint256"
        }
      ],
      "name": "payments",
      "outputs": [
        {
          "internalType": "uint256",
          "name": "id",
          "type": "uint256"
        },
        {
          "internalType": "uint256",
          "name": "dueDate",
          "type": "uint256"
        },
        {
          "internalType": "uint256",
          "name": "paidDate",
          "type": "uint256"
        },
        {
          "internalType": "uint256",
          "name": "amount",
          "type": "uint256"
        },
        {
          "internalType": "uint256",
          "name": "penalty",
          "type": "uint256"
        },
        {
          "internalType": "enum PaymentManager.PaymentStatus",
          "name": "status",
          "type": "uint8"
        },
        {
          "internalType": "address",
          "name": "paidBy",
          "type": "address"
        }
      ],
      "stateMutability": "view",
      "type": "function",
      "constant": true
    },
    {
      "inputs": [],
      "name": "penaltyRate",
      "outputs": [
        {
          "internalType": "uint256",
          "name": "",
          "type": "uint256"
        }
      ],
      "stateMutability": "view",
      "type": "function",
      "constant": true
    },
    {
      "inputs": [],
      "name": "rentAmount",
      "outputs": [
        {
          "internalType": "uint256",
          "name": "",
          "type": "uint256"
        }
      ],
      "stateMutability": "view",
      "type": "function",
      "constant": true
    },
    {
      "inputs": [],
      "name": "tenant",
      "outputs": [
        {
          "internalType": "address",
          "name": "",
          "type": "address"
        }
      ],
      "stateMutability": "view",
      "type": "function",
      "constant": true
    },
    {
      "inputs": [],
      "name": "payRent",
      "outputs": [],
      "stateMutability": "payable",
      "type": "function",
      "payable": true
    },
    {
      "inputs": [
        {
          "internalType": "uint256",
          "name": "_amount",
          "type": "uint256"
        },
        {
          "internalType": "uint256",
          "name": "_dueDate",
          "type": "uint256"
        }
      ],
      "name": "calculatePenalty",
      "outputs": [
        {
          "internalType": "uint256",
          "name": "",
          "type": "uint256"
        }
      ],
      "stateMutability": "view",
      "type": "function",
      "constant": true
    },
    {
      "inputs": [],
      "name": "getRentDueDate",
      "outputs": [
        {
          "internalType": "uint256",
          "name": "paymentId",
          "type": "uint256"
        },
        {
          "internalType": "uint256",
          "name": "dueDate",
          "type": "uint256"
        },
        {
          "internalType": "uint256",
          "name": "amount",
          "type": "uint256"
        },
        {
          "internalType": "uint256",
          "name": "estimatedPenalty",
          "type": "uint256"
        },
        {
          "internalType": "enum PaymentManager.PaymentStatus",
          "name": "status",
          "type": "uint8"
        }
      ],
      "stateMutability": "view",
      "type": "function",
      "constant": true
    },
    {
      "inputs": [],
      "name": "getPaymentHistory",
      "outputs": [
        {
          "internalType": "uint256[]",
          "name": "ids",
          "type": "uint256[]"
        },
        {
          "internalType": "uint256[]",
          "name": "dueDates",
          "type": "uint256[]"
        },
        {
          "internalType": "uint256[]",
          "name": "paidDates",
          "type": "uint256[]"
        },
        {
          "internalType": "uint256[]",
          "name": "amounts",
          "type": "uint256[]"
        },
        {
          "internalType": "uint256[]",
          "name": "penalties",
          "type": "uint256[]"
        },
        {
          "internalType": "enum PaymentManager.PaymentStatus[]",
          "name": "statuses",
          "type": "uint8[]"
        }
      ],
      "stateMutability": "view",
      "type": "function",
      "constant": true
    },
    {
      "inputs": [
        {
          "internalType": "uint256",
          "name": "_paymentId",
          "type": "uint256"
        }
      ],
      "name": "getPayment",
      "outputs": [
        {
          "internalType": "uint256",
          "name": "dueDate",
          "type": "uint256"
        },
        {
          "internalType": "uint256",
          "name": "paidDate",
          "type": "uint256"
        },
        {
          "internalType": "uint256",
          "name": "amount",
          "type": "uint256"
        },
        {
          "internalType": "uint256",
          "name": "penalty",
          "type": "uint256"
        },
        {
          "internalType": "enum PaymentManager.PaymentStatus",
          "name": "status",
          "type": "uint8"
        },
        {
          "internalType": "address",
          "name": "paidBy",
          "type": "address"
        }
      ],
      "stateMutability": "view",
      "type": "function",
      "constant": true
    },
    {
      "inputs": [],
      "name": "updateOverdueStatus",
      "outputs": [],
      "stateMutability": "nonpayable",
      "type": "function"
    },
    {
      "inputs": [],
      "name": "getOverdueCount",
      "outputs": [
        {
          "internalType": "uint256",
          "name": "",
          "type": "uint256"
        }
      ],
      "stateMutability": "view",
      "type": "function",
      "constant": true
    }
  ],
  "bytecode": "0x60806040523480156200001157600080fd5b506040516200133b3803806200133b833981016040819052620000349162000334565b6001600160a01b038616620000905760405162461bcd60e51b815260206004820152601660248201527f496e76616c69642074656e616e7420616464726573730000000000000000000060448201526064015b60405180910390fd5b60008511620000ed5760405162461bcd60e51b815260206004820152602260248201527f52656e7420616d6f756e74206d7573742062652067726561746572207468616e604482015261020360f41b606482015260840162000087565b600083116200013f5760405162461bcd60e51b815260206004820152601f60248201527f4475726174696f6e206d7573742062652067726561746572207468616e203000604482015260640162000087565b60008054336001600160a01b031991821617909155600180549091166001600160a01b038816179055600285905562278d006003556004849055600582905560068190556200018e836200019a565b50505050505062000413565b60005b81811015620002f857600060035482620001b89190620003ab565b600454620001c79190620003cb565b90506040518060e00160405280600854815260200182815260200160008152602001600254815260200160008152602001600060028111156200020e576200020e620003e1565b815260200160006001600160a01b0316815250600760006008548152602001908152602001600020600082015181600001556020820151816001015560408201518160020155606082015181600301556080820151816004015560a08201518160050160006101000a81548160ff02191690836002811115620002955762000295620003e1565b021790555060c09190910151600590910180546001600160a01b0390921661010002610100600160a81b031990921691909117905560088054906000620002dc83620003f7565b9190505550508080620002ef90620003f7565b9150506200019d565b5060006009556040518181527fc4c94095c18cf6e2393a9f4b7cf847fc189af9faeab7f634509c13c18c9aedd89060200160405180910390a150565b60008060008060008060c087890312156200034e57600080fd5b86516001600160a01b03811681146200036657600080fd5b6020880151604089015160608a015160808b015160a0909b0151939c929b509099909850965090945092505050565b634e487b7160e01b600052601160045260246000fd5b8082028115828204841417620003c557620003c562000395565b92915050565b80820180821115620003c557620003c562000395565b634e487b7160e01b600052602160045260246000fd5b6000600182016200040c576200040c62000395565b5060010190565b610f1880620004236000396000f3fe6080604052600436106100fe5760003560e01c8063b419857011610095578063d6b7494f11610064578063d6b7494f146102da578063dc1997ea146102f0578063e2e729ed14610310578063f166cfbd14610325578063f8ef1e131461033b57600080fd5b8063b419857014610272578063b651bb6114610288578063d0e2cf45146102af578063d3796bb1146102c557600080fd5b80637d4a8433116100d15780637d4a84331461019457806387d81789146101ba578063a709c4fe14610230578063adf077911461023a57600080fd5b80630937e68a146101035780631348ed5e1461012c5780633280a836146101425780633e79323214610174575b600080fd5b34801561010f57600080fd5b5061011960085481565b6040519081526020015b60405180910390f35b34801561013857600080fd5b5061011960065481565b34801561014e57600080fd5b5061016261015d366004610c04565b610351565b60405161012396959493929190610c55565b34801561018057600080fd5b5061011961018f366004610c9b565b6103f1565b3480156101a057600080fd5b506101a9610486565b604051610123959493929190610cbd565b3480156101c657600080fd5b5061021d6101d5366004610c04565b600760205260009081526040902080546001820154600283015460038401546004850154600590950154939492939192909160ff81169061010090046001600160a01b031687565b6040516101239796959493929190610cf1565b610238610500565b005b34801561024657600080fd5b5060015461025a906001600160a01b031681565b6040516001600160a01b039091168152602001610123565b34801561027e57600080fd5b5061011960095481565b34801561029457600080fd5b5061029d610801565b60405161012396959493929190610d79565b3480156102bb57600080fd5b5061011960035481565b3480156102d157600080fd5b50610238610ae7565b3480156102e657600080fd5b5061011960055481565b3480156102fc57600080fd5b5060005461025a906001600160a01b031681565b34801561031c57600080fd5b50610119610b58565b34801561033157600080fd5b5061011960045481565b34801561034757600080fd5b5061011960025481565b60008060008060008060085487106103a55760405162461bcd60e51b8152602060048201526012602482015271125b9d985b1a59081c185e5b595b9d08125160721b60448201526064015b60405180910390fd5b50505060009384525050600760205250604090206001810154600282015460038301546004840154600590940154929491939092909160ff82169161010090046001600160a01b031690565b6000600654620151806104049190610e3e565b61040e9083610e55565b421161041c57506000610480565b600062015180600654620151806104339190610e3e565b61043d8542610e68565b6104479190610e68565b6104519190610e7b565b90506000610bb882600554876104679190610e3e565b6104719190610e3e565b61047b9190610e7b565b925050505b92915050565b6000806000806000600854600954106104ae57506000935083925082915081905060016104f9565b6009546000908152600760205260408120600381015460018201549192916104d691906103f1565b825460018401546003850154600590950154919950975092955093505060ff1690505b9091929394565b6001546001600160a01b031633146105665760405162461bcd60e51b815260206004820152602360248201527f4f6e6c792074656e616e742063616e20706572666f726d20746869732061637460448201526234b7b760e91b606482015260840161039c565b600854600954106105b05760405162461bcd60e51b81526020600482015260146024820152734e6f206d6f7265207061796d656e74732064756560601b604482015260640161039c565b60095460009081526007602052604090206001600582015460ff1660028111156105dc576105dc610c1d565b036106205760405162461bcd60e51b81526020600482015260146024820152735061796d656e7420616c7265616479206d61646560601b604482015260640161039c565b6000600654620151806106339190610e3e565b82600101546106429190610e55565b42111561069c5761065b826003015483600101546103f1565b600483018190558254604051828152919250907f8cde5670f6ee74478a4d7a5073596874894ea932ab8cc9c2ee3e0ae61c42e4ca9060200160405180910390a25b60008183600301546106ae9190610e55565b9050803410156107005760405162461bcd60e51b815260206004820152601b60248201527f496e73756666696369656e74207061796d656e7420616d6f756e740000000000604482015260640161039c565b42600284015560058301805461010033026001600160a81b0319909116176001179055600080546040516001600160a01b039091169183156108fc02918491818181858888f1935050505015801561075c573d6000803e3d6000fd5b508034111561079d57336108fc6107738334610e68565b6040518115909202916000818181858888f1935050505015801561079b573d6000803e3d6000fd5b505b82546003840154604080519182526020820185905242908201523391907f28a0558caf1fce4b262b10b0aeba68d724203670ee241a306300d2f729a3b1e19060600160405180910390a3600980549060006107f783610e9d565b9190505550505050565b60608060608060608060085467ffffffffffffffff81111561082557610825610eb6565b60405190808252806020026020018201604052801561084e578160200160208202803683370190505b50955060085467ffffffffffffffff81111561086c5761086c610eb6565b604051908082528060200260200182016040528015610895578160200160208202803683370190505b50945060085467ffffffffffffffff8111156108b3576108b3610eb6565b6040519080825280602002602001820160405280156108dc578160200160208202803683370190505b50935060085467ffffffffffffffff8111156108fa576108fa610eb6565b604051908082528060200260200182016040528015610923578160200160208202803683370190505b50925060085467ffffffffffffffff81111561094157610941610eb6565b60405190808252806020026020018201604052801561096a578160200160208202803683370190505b50915060085467ffffffffffffffff81111561098857610988610eb6565b6040519080825280602002602001820160405280156109b1578160200160208202803683370190505b50905060005b600854811015610ade576000818152600760205260409020805488518990849081106109e5576109e5610ecc565b6020026020010181815250508060010154878381518110610a0857610a08610ecc565b6020026020010181815250508060020154868381518110610a2b57610a2b610ecc565b6020026020010181815250508060030154858381518110610a4e57610a4e610ecc565b6020026020010181815250508060040154848381518110610a7157610a71610ecc565b60209081029190910101526005810154835160ff90911690849084908110610a9b57610a9b610ecc565b60200260200101906002811115610ab457610ab4610c1d565b90816002811115610ac757610ac7610c1d565b905250819050610ad681610e9d565b9150506109b7565b50909192939495565b6009545b600854811015610b5557600081815260076020526040812090600582015460ff166002811115610b1d57610b1d610c1d565b148015610b2d5750806001015442115b15610b425760058101805460ff191660021790555b5080610b4d81610e9d565b915050610aeb565b50565b600080805b600854811015610bfe57600260008281526007602052604090206005015460ff166002811115610b8f57610b8f610c1d565b1480610bd9575060008181526007602052604081206005015460ff166002811115610bbc57610bbc610c1d565b148015610bd9575060008181526007602052604090206001015442115b15610bec5781610be881610e9d565b9250505b80610bf681610e9d565b915050610b5d565b50919050565b600060208284031215610c1657600080fd5b5035919050565b634e487b7160e01b600052602160045260246000fd5b60038110610c5157634e487b7160e01b600052602160045260246000fd5b9052565b600060c082019050878252866020830152856040830152846060830152610c7f6080830185610c33565b6001600160a01b039290921660a0919091015295945050505050565b60008060408385031215610cae57600080fd5b50508035926020909101359150565b600060a082019050868252856020830152846040830152836060830152610ce76080830184610c33565b9695505050505050565b600060e082019050888252876020830152866040830152856060830152846080830152610d2160a0830185610c33565b6001600160a01b039290921660c091909101529695505050505050565b600081518084526020808501945080840160005b83811015610d6e57815187529582019590820190600101610d52565b509495945050505050565b60c081526000610d8c60c0830189610d3e565b602083820381850152610d9f828a610d3e565b91508382036040850152610db38289610d3e565b91508382036060850152610dc78288610d3e565b91508382036080850152610ddb8287610d3e565b84810360a0860152855180825282870193509082019060005b81811015610e1757610e07838651610c33565b9383019391830191600101610df4565b50909b9a5050505050505050505050565b634e487b7160e01b600052601160045260246000fd5b808202811582820484141761048057610480610e28565b8082018082111561048057610480610e28565b8181038181111561048057610480610e28565b600082610e9857634e487b7160e01b600052601260045260246000fd5b500490565b600060018201610eaf57610eaf610e28565b5060010190565b634e487b7160e01b600052604160045260246000fd5b634e487b7160e01b600052603260045260246000fdfea26469706673582212207eb6d95997d0616714c47ceed70676974e8304ed48bdb7c9e99d04cff87c234f64736f6c63430008130033",
  "immutableReferences": {},
  "source": "// SPDX-License-Identifier: MIT\r\npragma solidity ^0.8.0;\r\n\r\n/**\r\n * @title PaymentManager\r\n * @dev Manages rent payments, penalties, and payment history for rental contracts\r\n */\r\ncontract PaymentManager {\r\n    \r\n    // Payment status\r\n    enum PaymentStatus { Pending, Paid, Overdue }\r\n    \r\n    // Payment record structure\r\n    struct Payment {\r\n        uint256 id;\r\n        uint256 dueDate;\r\n        uint256 paidDate;\r\n        uint256 amount;\r\n        uint256 penalty;\r\n        PaymentStatus status;\r\n        address paidBy;\r\n    }\r\n    \r\n    // Contract configuration\r\n    address payable public landlord;\r\n    address public tenant;\r\n    uint256 public rentAmount;\r\n    uint256 public paymentFrequencyDays; // Usually 30 days for monthly\r\n    uint256 public contractStartDate;\r\n    uint256 public penaltyRate; // Penalty percentage (e.g., 5 = 5%)\r\n    uint256 public gracePeriodDays; // Days before penalty applies\r\n    \r\n    // Payment tracking\r\n    mapping(uint256 => Payment) public payments;\r\n    uint256 public paymentCount;\r\n    uint256 public nextPaymentDue;\r\n    \r\n    // Events\r\n    event RentPaid(\r\n        uint256 indexed paymentId,\r\n        address indexed paidBy,\r\n        uint256 amount,\r\n        uint256 penalty,\r\n        uint256 timestamp\r\n    );\r\n    event PenaltyApplied(uint256 indexed paymentId, uint256 penaltyAmount);\r\n    event PaymentScheduleGenerated(uint256 numberOfPayments);\r\n    \r\n    // Modifiers\r\n    modifier onlyLandlord() {\r\n        require(msg.sender == landlord, \"Only landlord can perform this action\");\r\n        _;\r\n    }\r\n    \r\n    modifier onlyTenant() {\r\n        require(msg.sender == tenant, \"Only tenant can perform this action\");\r\n        _;\r\n    }\r\n    \r\n    /**\r\n     * @dev Constructor to initialize payment manager\r\n     * @param _tenant Address of the tenant\r\n     * @param _rentAmount Monthly rent amount in wei\r\n     * @param _contractStartDate Contract start timestamp\r\n     * @param _durationMonths Contract duration in months\r\n     * @param _penaltyRate Penalty percentage for late payments\r\n     * @param _gracePeriodDays Grace period before penalties apply\r\n     */\r\n    constructor(\r\n        address _tenant,\r\n        uint256 _rentAmount,\r\n        uint256 _contractStartDate,\r\n        uint256 _durationMonths,\r\n        uint256 _penaltyRate,\r\n        uint256 _gracePeriodDays\r\n    ) {\r\n        require(_tenant != address(0), \"Invalid tenant address\");\r\n        require(_rentAmount > 0, \"Rent amount must be greater than 0\");\r\n        require(_durationMonths > 0, \"Duration must be greater than 0\");\r\n        \r\n        landlord = payable(msg.sender);\r\n        tenant = _tenant;\r\n        rentAmount = _rentAmount;\r\n        paymentFrequencyDays = 30 days;\r\n        contractStartDate = _contractStartDate;\r\n        penaltyRate = _penaltyRate;\r\n        gracePeriodDays = _gracePeriodDays;\r\n        \r\n        // Generate payment schedule\r\n        _generatePaymentSchedule(_durationMonths);\r\n    }\r\n    \r\n    /**\r\n     * @dev Generate payment schedule for the contract duration\r\n     * @param _durationMonths Number of months for the contract\r\n     */\r\n    function _generatePaymentSchedule(uint256 _durationMonths) private {\r\n        for (uint256 i = 0; i < _durationMonths; i++) {\r\n            uint256 dueDate = contractStartDate + (i * paymentFrequencyDays);\r\n            \r\n            payments[paymentCount] = Payment({\r\n                id: paymentCount,\r\n                dueDate: dueDate,\r\n                paidDate: 0,\r\n                amount: rentAmount,\r\n                penalty: 0,\r\n                status: PaymentStatus.Pending,\r\n                paidBy: address(0)\r\n            });\r\n            \r\n            paymentCount++;\r\n        }\r\n        \r\n        nextPaymentDue = 0; // First payment index\r\n        emit PaymentScheduleGenerated(_durationMonths);\r\n    }\r\n    \r\n    /**\r\n     * @dev Pay rent for the next due payment\r\n     */\r\n    function payRent() external payable onlyTenant {\r\n        require(nextPaymentDue < paymentCount, \"No more payments due\");\r\n        \r\n        Payment storage payment = payments[nextPaymentDue];\r\n        require(payment.status != PaymentStatus.Paid, \"Payment already made\");\r\n        \r\n        // Calculate penalty if payment is late\r\n        uint256 penalty = 0;\r\n        if (block.timestamp > payment.dueDate + (gracePeriodDays * 1 days)) {\r\n            penalty = calculatePenalty(payment.amount, payment.dueDate);\r\n            payment.penalty = penalty;\r\n            emit PenaltyApplied(payment.id, penalty);\r\n        }\r\n        \r\n        uint256 totalAmount = payment.amount + penalty;\r\n        require(msg.value >= totalAmount, \"Insufficient payment amount\");\r\n        \r\n        // Update payment record\r\n        payment.paidDate = block.timestamp;\r\n        payment.status = PaymentStatus.Paid;\r\n        payment.paidBy = msg.sender;\r\n        \r\n        // Transfer to landlord\r\n        landlord.transfer(totalAmount);\r\n        \r\n        // Return excess if any\r\n        if (msg.value > totalAmount) {\r\n            payable(msg.sender).transfer(msg.value - totalAmount);\r\n        }\r\n        \r\n        emit RentPaid(payment.id, msg.sender, payment.amount, penalty, block.timestamp);\r\n        \r\n        // Move to next payment\r\n        nextPaymentDue++;\r\n    }\r\n    \r\n    /**\r\n     * @dev Calculate penalty for late payment\r\n     * @param _amount Base rent amount\r\n     * @param _dueDate Original due date\r\n     * @return Penalty amount in wei\r\n     */\r\n    function calculatePenalty(uint256 _amount, uint256 _dueDate) public view returns (uint256) {\r\n        if (block.timestamp <= _dueDate + (gracePeriodDays * 1 days)) {\r\n            return 0;\r\n        }\r\n        \r\n        // Calculate days late (after grace period)\r\n        uint256 daysLate = (block.timestamp - _dueDate - (gracePeriodDays * 1 days)) / 1 days;\r\n        \r\n        // Penalty = base amount * penaltyRate% * days late / 30\r\n        uint256 penalty = (_amount * penaltyRate * daysLate) / (100 * 30);\r\n        \r\n        return penalty;\r\n    }\r\n    \r\n    /**\r\n     * @dev Get details of next rent due\r\n     */\r\n    function getRentDueDate() external view returns (\r\n        uint256 paymentId,\r\n        uint256 dueDate,\r\n        uint256 amount,\r\n        uint256 estimatedPenalty,\r\n        PaymentStatus status\r\n    ) {\r\n        if (nextPaymentDue >= paymentCount) {\r\n            return (0, 0, 0, 0, PaymentStatus.Paid);\r\n        }\r\n        \r\n        Payment storage payment = payments[nextPaymentDue];\r\n        uint256 penalty = calculatePenalty(payment.amount, payment.dueDate);\r\n        \r\n        return (\r\n            payment.id,\r\n            payment.dueDate,\r\n            payment.amount,\r\n            penalty,\r\n            payment.status\r\n        );\r\n    }\r\n    \r\n    // Get payment history\r\n    function getPaymentHistory() external view returns (\r\n        uint256[] memory ids,\r\n        uint256[] memory dueDates,\r\n        uint256[] memory paidDates,\r\n        uint256[] memory amounts,\r\n        uint256[] memory penalties,\r\n        PaymentStatus[] memory statuses\r\n    ) {\r\n        ids = new uint256[](paymentCount);\r\n        dueDates = new uint256[](paymentCount);\r\n        paidDates = new uint256[](paymentCount);\r\n        amounts = new uint256[](paymentCount);\r\n        penalties = new uint256[](paymentCount);\r\n        statuses = new PaymentStatus[](paymentCount);\r\n        \r\n        for (uint256 i = 0; i < paymentCount; i++) {\r\n            Payment storage payment = payments[i];\r\n            ids[i] = payment.id;\r\n            dueDates[i] = payment.dueDate;\r\n            paidDates[i] = payment.paidDate;\r\n            amounts[i] = payment.amount;\r\n            penalties[i] = payment.penalty;\r\n            statuses[i] = payment.status;\r\n        }\r\n        \r\n        return (ids, dueDates, paidDates, amounts, penalties, statuses);\r\n    }\r\n    \r\n    /**\r\n     * @dev Get specific payment details\r\n     * @param _paymentId Payment ID to query\r\n     */\r\n    function getPayment(uint256 _paymentId) external view returns (\r\n        uint256 dueDate,\r\n        uint256 paidDate,\r\n        uint256 amount,\r\n        uint256 penalty,\r\n        PaymentStatus status,\r\n        address paidBy\r\n    ) {\r\n        require(_paymentId < paymentCount, \"Invalid payment ID\");\r\n        Payment storage payment = payments[_paymentId];\r\n        \r\n        return (\r\n            payment.dueDate,\r\n            payment.paidDate,\r\n            payment.amount,\r\n            payment.penalty,\r\n            payment.status,\r\n            payment.paidBy\r\n        );\r\n    }\r\n    \r\n    /**\r\n     * @dev Check for overdue payments and update status\r\n     */\r\n    function updateOverdueStatus() external {\r\n        for (uint256 i = nextPaymentDue; i < paymentCount; i++) {\r\n            Payment storage payment = payments[i];\r\n            if (payment.status == PaymentStatus.Pending && block.timestamp > payment.dueDate) {\r\n                payment.status = PaymentStatus.Overdue;\r\n            }\r\n        }\r\n    }\r\n    \r\n    /**\r\n     * @dev Get count of overdue payments\r\n     */\r\n    function getOverdueCount() external view returns (uint256) {\r\n        uint256 count = 0;\r\n        for (uint256 i = 0; i < paymentCount; i++) {\r\n            if (payments[i].status == PaymentStatus.Overdue || \r\n                (payments[i].status == PaymentStatus.Pending && block.timestamp > payments[i].dueDate)) {\r\n                count++;\r\n            }\r\n        }\r\n        return count;\r\n    }\r\n}\r\n",
  "sourcePath": "C:\\Users\\NABIL\\Desktop\\pfa\\blockchain\\contracts\\PaymentManager.sol",
  "compiler": {
    "name": "solc",
    "version": "0.8.19+commit.7dd6d404.Emscripten.clang"
  },
  "schemaVersion": "3.4.16",
  "updatedAt": "2025-12-12T15:21:10.524Z",
  "networkType": "ethereum",
  "devdoc": {
    "details": "Manages rent payments, penalties, and payment history for rental contracts",
    "kind": "dev",
    "methods": {
      "calculatePenalty(uint256,uint256)": {
        "details": "Calculate penalty for late payment",
        "params": {
          "_amount": "Base rent amount",
          "_dueDate": "Original due date"
        },
        "returns": {
          "_0": "Penalty amount in wei"
        }
      },
      "constructor": {
        "details": "Constructor to initialize payment manager",
        "params": {
          "_contractStartDate": "Contract start timestamp",
          "_durationMonths": "Contract duration in months",
          "_gracePeriodDays": "Grace period before penalties apply",
          "_penaltyRate": "Penalty percentage for late payments",
          "_rentAmount": "Monthly rent amount in wei",
          "_tenant": "Address of the tenant"
        }
      },
      "getOverdueCount()": {
        "details": "Get count of overdue payments"
      },
      "getPayment(uint256)": {
        "details": "Get specific payment details",
        "params": {
          "_paymentId": "Payment ID to query"
        }
      },
      "getRentDueDate()": {
        "details": "Get details of next rent due"
      },
      "payRent()": {
        "details": "Pay rent for the next due payment"
      },
      "updateOverdueStatus()": {
        "details": "Check for overdue payments and update status"
      }
    },
    "title": "PaymentManager",
    "version": 1
  },
  "userdoc": {
    "kind": "user",
    "methods": {},
    "version": 1
  }
}