{
  "contractName": "RentalContract",
  "abi": [
    {
      "inputs": [
        {
          "internalType": "address payable",
          "name": "_tenant",
          "type": "address"
        },
        {
          "internalType": "uint256",
          "name": "_rentAmount",
          "type": "uint256"
        },
        {
          "internalType": "uint256",
          "name": "_depositAmount",
          "type": "uint256"
        },
        {
          "internalType": "uint256",
          "name": "_durationMonths",
          "type": "uint256"
        },
        {
          "internalType": "string",
          "name": "_propertyAddress",
          "type": "string"
        },
        {
          "internalType": "string",
          "name": "_terms",
          "type": "string"
        }
      ],
      "stateMutability": "nonpayable",
      "type": "constructor"
    },
    {
      "anonymous": false,
      "inputs": [
        {
          "indexed": false,
          "internalType": "uint256",
          "name": "startDate",
          "type": "uint256"
        },
        {
          "indexed": false,
          "internalType": "uint256",
          "name": "endDate",
          "type": "uint256"
        }
      ],
      "name": "ContractActivated",
      "type": "event"
    },
    {
      "anonymous": false,
      "inputs": [
        {
          "indexed": true,
          "internalType": "address",
          "name": "landlord",
          "type": "address"
        },
        {
          "indexed": false,
          "internalType": "uint256",
          "name": "rentAmount",
          "type": "uint256"
        },
        {
          "indexed": false,
          "internalType": "uint256",
          "name": "depositAmount",
          "type": "uint256"
        }
      ],
      "name": "ContractCreated",
      "type": "event"
    },
    {
      "anonymous": false,
      "inputs": [
        {
          "indexed": true,
          "internalType": "address",
          "name": "landlord",
          "type": "address"
        },
        {
          "indexed": false,
          "internalType": "uint256",
          "name": "timestamp",
          "type": "uint256"
        }
      ],
      "name": "ContractSignedByLandlord",
      "type": "event"
    },
    {
      "anonymous": false,
      "inputs": [
        {
          "indexed": true,
          "internalType": "address",
          "name": "tenant",
          "type": "address"
        },
        {
          "indexed": false,
          "internalType": "uint256",
          "name": "depositPaid",
          "type": "uint256"
        },
        {
          "indexed": false,
          "internalType": "uint256",
          "name": "timestamp",
          "type": "uint256"
        }
      ],
      "name": "ContractSignedByTenant",
      "type": "event"
    },
    {
      "anonymous": false,
      "inputs": [
        {
          "indexed": true,
          "internalType": "address",
          "name": "by",
          "type": "address"
        },
        {
          "indexed": false,
          "internalType": "uint256",
          "name": "timestamp",
          "type": "uint256"
        },
        {
          "indexed": false,
          "internalType": "uint256",
          "name": "depositReturned",
          "type": "uint256"
        }
      ],
      "name": "ContractTerminated",
      "type": "event"
    },
    {
      "inputs": [],
      "name": "contractDetails",
      "outputs": [
        {
          "internalType": "address payable",
          "name": "landlord",
          "type": "address"
        },
        {
          "internalType": "address payable",
          "name": "tenant",
          "type": "address"
        },
        {
          "internalType": "uint256",
          "name": "rentAmount",
          "type": "uint256"
        },
        {
          "internalType": "uint256",
          "name": "depositAmount",
          "type": "uint256"
        },
        {
          "internalType": "uint256",
          "name": "durationMonths",
          "type": "uint256"
        },
        {
          "internalType": "uint256",
          "name": "startDate",
          "type": "uint256"
        },
        {
          "internalType": "uint256",
          "name": "endDate",
          "type": "uint256"
        },
        {
          "internalType": "enum RentalContract.ContractStatus",
          "name": "status",
          "type": "uint8"
        },
        {
          "internalType": "bool",
          "name": "landlordSigned",
          "type": "bool"
        },
        {
          "internalType": "bool",
          "name": "tenantSigned",
          "type": "bool"
        },
        {
          "internalType": "string",
          "name": "propertyAddress",
          "type": "string"
        },
        {
          "internalType": "string",
          "name": "terms",
          "type": "string"
        }
      ],
      "stateMutability": "view",
      "type": "function",
      "constant": true
    },
    {
      "inputs": [],
      "name": "signByLandlord",
      "outputs": [],
      "stateMutability": "nonpayable",
      "type": "function"
    },
    {
      "inputs": [],
      "name": "signByTenant",
      "outputs": [],
      "stateMutability": "payable",
      "type": "function",
      "payable": true
    },
    {
      "inputs": [
        {
          "internalType": "bool",
          "name": "_returnDeposit",
          "type": "bool"
        }
      ],
      "name": "terminateContract",
      "outputs": [],
      "stateMutability": "nonpayable",
      "type": "function"
    },
    {
      "inputs": [],
      "name": "getContractDetails",
      "outputs": [
        {
          "internalType": "address",
          "name": "landlord",
          "type": "address"
        },
        {
          "internalType": "address",
          "name": "tenant",
          "type": "address"
        },
        {
          "internalType": "uint256",
          "name": "rentAmount",
          "type": "uint256"
        },
        {
          "internalType": "uint256",
          "name": "depositAmount",
          "type": "uint256"
        },
        {
          "internalType": "uint256",
          "name": "durationMonths",
          "type": "uint256"
        },
        {
          "internalType": "uint256",
          "name": "startDate",
          "type": "uint256"
        },
        {
          "internalType": "uint256",
          "name": "endDate",
          "type": "uint256"
        },
        {
          "internalType": "enum RentalContract.ContractStatus",
          "name": "status",
          "type": "uint8"
        },
        {
          "internalType": "bool",
          "name": "landlordSigned",
          "type": "bool"
        },
        {
          "internalType": "bool",
          "name": "tenantSigned",
          "type": "bool"
        }
      ],
      "stateMutability": "view",
      "type": "function",
      "constant": true
    },
    {
      "inputs": [],
      "name": "getPropertyInfo",
      "outputs": [
        {
          "internalType": "string",
          "name": "propertyAddress",
          "type": "string"
        },
        {
          "internalType": "string",
          "name": "terms",
          "type": "string"
        }
      ],
      "stateMutability": "view",
      "type": "function",
      "constant": true
    },
    {
      "inputs": [],
      "name": "getBalance",
      "outputs": [
        {
          "internalType": "uint256",
          "name": "",
          "type": "uint256"
        }
      ],
      "stateMutability": "view",
      "type": "function",
      "constant": true
    }
  ],
  "bytecode": "0x60806040523480156200001157600080fd5b50604051620011fe380380620011fe83398101604081905262000034916200041f565b6001600160a01b038616620000905760405162461bcd60e51b815260206004820152601660248201527f496e76616c69642074656e616e7420616464726573730000000000000000000060448201526064015b60405180910390fd5b60008511620000ed5760405162461bcd60e51b815260206004820152602260248201527f52656e7420616d6f756e74206d7573742062652067726561746572207468616e604482015261020360f41b606482015260840162000087565b600084116200014d5760405162461bcd60e51b815260206004820152602560248201527f4465706f73697420616d6f756e74206d75737420626520677265617465722074604482015264068616e20360dc1b606482015260840162000087565b600083116200019f5760405162461bcd60e51b815260206004820152601f60248201527f4475726174696f6e206d7573742062652067726561746572207468616e203000604482015260640162000087565b604051806101800160405280336001600160a01b03168152602001876001600160a01b03168152602001868152602001858152602001848152602001600081526020016000815260200160006003811115620001ff57620001ff620004c6565b815260006020808301829052604080840183905260608085018890526080948501879052855184546001600160a01b03199081166001600160a01b03928316178655938701516001805490951691161783559085015160025584015160039081559284015160045560a084015160055560c084015160065560e08401516007805493949193909260ff19909116918490811115620002a157620002a1620004c6565b0217905550610100828101516007830180546101208601511515620100000262ff0000199315159094029290921662ffff0019909216919091179190911790556101408201516008820190620002f890826200056b565b5061016082015160098201906200031090826200056b565b505060408051878152602081018790523392507f58781ca443f8e3ecffad28c83044b16c6e549d8e9c677aebb3b8ee176f99f53f910160405180910390a250505050505062000637565b634e487b7160e01b600052604160045260246000fd5b600082601f8301126200038257600080fd5b81516001600160401b03808211156200039f576200039f6200035a565b604051601f8301601f19908116603f01168101908282118183101715620003ca57620003ca6200035a565b81604052838152602092508683858801011115620003e757600080fd5b600091505b838210156200040b5785820183015181830184015290820190620003ec565b600093810190920192909252949350505050565b60008060008060008060c087890312156200043957600080fd5b86516001600160a01b03811681146200045157600080fd5b6020880151604089015160608a015160808b0151939950919750955093506001600160401b03808211156200048557600080fd5b620004938a838b0162000370565b935060a0890151915080821115620004aa57600080fd5b50620004b989828a0162000370565b9150509295509295509295565b634e487b7160e01b600052602160045260246000fd5b600181811c90821680620004f157607f821691505b6020821081036200051257634e487b7160e01b600052602260045260246000fd5b50919050565b601f8211156200056657600081815260208120601f850160051c81016020861015620005415750805b601f850160051c820191505b8181101562000562578281556001016200054d565b5050505b505050565b81516001600160401b038111156200058757620005876200035a565b6200059f81620005988454620004dc565b8462000518565b602080601f831160018114620005d75760008415620005be5750858301515b600019600386901b1c1916600185901b17855562000562565b600085815260208120601f198616915b828110156200060857888601518255948401946001909101908401620005e7565b5085821015620006275787850151600019600388901b60f8161c191681555b5050505050600190811b01905550565b610bb780620006476000396000f3fe6080604052600436106100705760003560e01c8063604f2c621161004e578063604f2c62146100e55780639dfc9117146100ef578063c746445a1461014b578063c7a4a6d11461016b57600080fd5b806312065fe01461007557806339571d6e146100955780635de5f3be146100c2575b600080fd5b34801561008157600080fd5b506040514781526020015b60405180910390f35b3480156100a157600080fd5b506100aa610180565b60405161008c9c9b9a99989796959493929190610968565b3480156100ce57600080fd5b506100d76102eb565b60405161008c9291906109fd565b6100ed610418565b005b3480156100fb57600080fd5b5060005460015460025460035460045460055460065460075460405161008c986001600160a01b03908116981696959493929160ff80821692610100830482169262010000900490911690610a2b565b34801561015757600080fd5b506100ed610166366004610a93565b61062f565b34801561017757600080fd5b506100ed6107ae565b60008054600154600254600354600454600554600654600754600880546001600160a01b03998a169a98909916989697959694959394929360ff80841694610100850482169462010000900490911692906101da90610abc565b80601f016020809104026020016040519081016040528092919081815260200182805461020690610abc565b80156102535780601f1061022857610100808354040283529160200191610253565b820191906000526020600020905b81548152906001019060200180831161023657829003601f168201915b50505050509080600901805461026890610abc565b80601f016020809104026020016040519081016040528092919081815260200182805461029490610abc565b80156102e15780601f106102b6576101008083540402835291602001916102e1565b820191906000526020600020905b8154815290600101906020018083116102c457829003601f168201915b505050505090508c565b6060806000600801600060090181805461030490610abc565b80601f016020809104026020016040519081016040528092919081815260200182805461033090610abc565b801561037d5780601f106103525761010080835404028352916020019161037d565b820191906000526020600020905b81548152906001019060200180831161036057829003601f168201915b5050505050915080805461039090610abc565b80601f01602080910402602001604051908101604052809291908181526020018280546103bc90610abc565b80156104095780601f106103de57610100808354040283529160200191610409565b820191906000526020600020905b8154815290600101906020018083116103ec57829003601f168201915b50505050509050915091509091565b6001546001600160a01b031633146104835760405162461bcd60e51b815260206004820152602360248201527f4f6e6c792074656e616e742063616e20706572666f726d20746869732061637460448201526234b7b760e91b60648201526084015b60405180910390fd5b600754610100900460ff166104da5760405162461bcd60e51b815260206004820152601860248201527f4c616e646c6f7264206d757374207369676e2066697273740000000000000000604482015260640161047a565b60075462010000900460ff161561052b5760405162461bcd60e51b815260206004820152601560248201527415195b985b9d08185b1c9958591e481cda59db9959605a1b604482015260640161047a565b600354341461057c5760405162461bcd60e51b815260206004820152601860248201527f496e636f7272656374206465706f73697420616d6f756e740000000000000000604482015260640161047a565b6007805462ff00ff191662010002179055426005556004546105a19062278d00610b0c565b6105ab9042610b29565b6006556040805134815242602082015233917fb53b2ec1f704d31ba052addb916a34463657b211d1f4a4faca4954b1d4ef982d910160405180910390a26005546006546040517f6b8769e56b48f1680594632e1dd22999ce0ec14022cbe114f5e0d6154c866a7f9261062592908252602082015260400190565b60405180910390a1565b6000546001600160a01b031633146106595760405162461bcd60e51b815260040161047a90610b3c565b600260075460ff166003811115610672576106726108ea565b146106b85760405162461bcd60e51b8152602060048201526016602482015275436f6e7472616374206973206e6f742061637469766560501b604482015260640161047a565b6007805460ff1916600317905560008180156106d5575060035415155b1561071e57506003546001546040516001600160a01b039091169082156108fc029083906000818181858888f19350505050158015610718573d6000803e3d6000fd5b5061076f565b8115801561072d575060035415155b1561076f57600080546003546040516001600160a01b039092169281156108fc029290818181858888f1935050505015801561076d573d6000803e3d6000fd5b505b604080514281526020810183905233917f6be8be759cda4c5feef9ad215df471cba9b636e1a68e1b8fb0803037e02c8950910160405180910390a25050565b6000546001600160a01b031633146107d85760405162461bcd60e51b815260040161047a90610b3c565b600060075460ff1660038111156107f1576107f16108ea565b1461084a5760405162461bcd60e51b815260206004820152602360248201527f436f6e747261637420616c7265616479207369676e6564206279206c616e646c6044820152621bdc9960ea1b606482015260840161047a565b600754610100900460ff16156108a25760405162461bcd60e51b815260206004820152601760248201527f4c616e646c6f726420616c7265616479207369676e6564000000000000000000604482015260640161047a565b6007805461010161ffff1990911617905560405142815233907fc8abad197e94c63f959ce2a454a842351dadd91f8b8ef4d78a78817a1ae250b59060200160405180910390a2565b634e487b7160e01b600052602160045260246000fd5b6004811061091e57634e487b7160e01b600052602160045260246000fd5b9052565b6000815180845260005b818110156109485760208185018101518683018201520161092c565b506000602082860101526020601f19601f83011685010191505092915050565b6001600160a01b038d811682528c166020820152604081018b9052606081018a90526080810189905260a0810188905260c0810187905260006109ae60e0830188610900565b8515156101008301528415156101208301526101806101408301526109d7610180830185610922565b8281036101608401526109ea8185610922565b9f9e505050505050505050505050505050565b604081526000610a106040830185610922565b8281036020840152610a228185610922565b95945050505050565b6001600160a01b038b811682528a16602082015260408101899052606081018890526080810187905260a0810186905260c081018590526101408101610a7460e0830186610900565b9215156101008201529015156101209091015298975050505050505050565b600060208284031215610aa557600080fd5b81358015158114610ab557600080fd5b9392505050565b600181811c90821680610ad057607f821691505b602082108103610af057634e487b7160e01b600052602260045260246000fd5b50919050565b634e487b7160e01b600052601160045260246000fd5b8082028115828204841417610b2357610b23610af6565b92915050565b80820180821115610b2357610b23610af6565b60208082526025908201527f4f6e6c79206c616e646c6f72642063616e20706572666f726d2074686973206160408201526431ba34b7b760d91b60608201526080019056fea26469706673582212201edb2f169f62438839b9749f2ddd2103d726807ca5b4b07577459c3309e3974e64736f6c63430008130033",
  "immutableReferences": {},
  "source": "// SPDX-License-Identifier: MIT\r\npragma solidity ^0.8.0;\r\n\r\n/**\r\n * @title RentalContract\r\n * @dev Smart contract for managing rental agreements between landlord and tenant\r\n */\r\ncontract RentalContract {\r\n    \r\n    // Contract states\r\n    enum ContractStatus { Draft, PendingSignature, Active, Terminated }\r\n    \r\n    // Struct to store contract details\r\n    struct ContractDetails {\r\n        address payable landlord;\r\n        address payable tenant;\r\n        uint256 rentAmount;\r\n        uint256 depositAmount;\r\n        uint256 durationMonths;\r\n        uint256 startDate;\r\n        uint256 endDate;\r\n        ContractStatus status;\r\n        bool landlordSigned;\r\n        bool tenantSigned;\r\n        string propertyAddress;\r\n        string terms;\r\n    }\r\n    \r\n    ContractDetails public contractDetails;\r\n    \r\n    // Events\r\n    event ContractCreated(address indexed landlord, uint256 rentAmount, uint256 depositAmount);\r\n    event ContractSignedByLandlord(address indexed landlord, uint256 timestamp);\r\n    event ContractSignedByTenant(address indexed tenant, uint256 depositPaid, uint256 timestamp);\r\n    event ContractActivated(uint256 startDate, uint256 endDate);\r\n    event ContractTerminated(address indexed by, uint256 timestamp, uint256 depositReturned);\r\n    \r\n    // Modifiers\r\n    modifier onlyLandlord() {\r\n        require(msg.sender == contractDetails.landlord, \"Only landlord can perform this action\");\r\n        _;\r\n    }\r\n    \r\n    modifier onlyTenant() {\r\n        require(msg.sender == contractDetails.tenant, \"Only tenant can perform this action\");\r\n        _;\r\n    }\r\n    \r\n    modifier onlyParties() {\r\n        require(\r\n            msg.sender == contractDetails.landlord || msg.sender == contractDetails.tenant,\r\n            \"Only contract parties can perform this action\"\r\n        );\r\n        _;\r\n    }\r\n    \r\n    modifier contractActive() {\r\n        require(contractDetails.status == ContractStatus.Active, \"Contract is not active\");\r\n        _;\r\n    }\r\n    \r\n    /**\r\n     * @dev Constructor to initialize the rental contract\r\n     * @param _tenant Address of the tenant\r\n     * @param _rentAmount Monthly rent amount in wei\r\n     * @param _depositAmount Security deposit amount in wei\r\n     * @param _durationMonths Contract duration in months\r\n     * @param _propertyAddress Physical address of the property\r\n     * @param _terms Contract terms and conditions\r\n     */\r\n    constructor(\r\n        address payable _tenant,\r\n        uint256 _rentAmount,\r\n        uint256 _depositAmount,\r\n        uint256 _durationMonths,\r\n        string memory _propertyAddress,\r\n        string memory _terms\r\n    ) {\r\n        require(_tenant != address(0), \"Invalid tenant address\");\r\n        require(_rentAmount > 0, \"Rent amount must be greater than 0\");\r\n        require(_depositAmount > 0, \"Deposit amount must be greater than 0\");\r\n        require(_durationMonths > 0, \"Duration must be greater than 0\");\r\n        \r\n        contractDetails = ContractDetails({\r\n            landlord: payable(msg.sender),\r\n            tenant: _tenant,\r\n            rentAmount: _rentAmount,\r\n            depositAmount: _depositAmount,\r\n            durationMonths: _durationMonths,\r\n            startDate: 0,\r\n            endDate: 0,\r\n            status: ContractStatus.Draft,\r\n            landlordSigned: false,\r\n            tenantSigned: false,\r\n            propertyAddress: _propertyAddress,\r\n            terms: _terms\r\n        });\r\n        \r\n        emit ContractCreated(msg.sender, _rentAmount, _depositAmount);\r\n    }\r\n    \r\n    /**\r\n     * @dev Landlord signs the contract\r\n     */\r\n    function signByLandlord() external onlyLandlord {\r\n        require(contractDetails.status == ContractStatus.Draft, \"Contract already signed by landlord\");\r\n        require(!contractDetails.landlordSigned, \"Landlord already signed\");\r\n        \r\n        contractDetails.landlordSigned = true;\r\n        contractDetails.status = ContractStatus.PendingSignature;\r\n        \r\n        emit ContractSignedByLandlord(msg.sender, block.timestamp);\r\n    }\r\n    \r\n    /**\r\n     * @dev Tenant signs the contract and pays deposit\r\n     */\r\n    function signByTenant() external payable onlyTenant {\r\n        require(contractDetails.landlordSigned, \"Landlord must sign first\");\r\n        require(!contractDetails.tenantSigned, \"Tenant already signed\");\r\n        require(msg.value == contractDetails.depositAmount, \"Incorrect deposit amount\");\r\n        \r\n        contractDetails.tenantSigned = true;\r\n        contractDetails.status = ContractStatus.Active;\r\n        contractDetails.startDate = block.timestamp;\r\n        contractDetails.endDate = block.timestamp + (contractDetails.durationMonths * 30 days);\r\n        \r\n        emit ContractSignedByTenant(msg.sender, msg.value, block.timestamp);\r\n        emit ContractActivated(contractDetails.startDate, contractDetails.endDate);\r\n    }\r\n    \r\n    /**\r\n     * @dev Terminate the contract\r\n     * @param _returnDeposit Whether to return the deposit to tenant\r\n     */\r\n    function terminateContract(bool _returnDeposit) external onlyLandlord contractActive {\r\n        contractDetails.status = ContractStatus.Terminated;\r\n        \r\n        uint256 depositReturned = 0;\r\n        if (_returnDeposit && contractDetails.depositAmount > 0) {\r\n            depositReturned = contractDetails.depositAmount;\r\n            contractDetails.tenant.transfer(contractDetails.depositAmount);\r\n        } else if (!_returnDeposit && contractDetails.depositAmount > 0) {\r\n            // Keep deposit, transfer to landlord\r\n            contractDetails.landlord.transfer(contractDetails.depositAmount);\r\n        }\r\n        \r\n        emit ContractTerminated(msg.sender, block.timestamp, depositReturned);\r\n    }\r\n    \r\n    /**\r\n     * @dev Get contract details\r\n     */\r\n    function getContractDetails() external view returns (\r\n        address landlord,\r\n        address tenant,\r\n        uint256 rentAmount,\r\n        uint256 depositAmount,\r\n        uint256 durationMonths,\r\n        uint256 startDate,\r\n        uint256 endDate,\r\n        ContractStatus status,\r\n        bool landlordSigned,\r\n        bool tenantSigned\r\n    ) {\r\n        return (\r\n            contractDetails.landlord,\r\n            contractDetails.tenant,\r\n            contractDetails.rentAmount,\r\n            contractDetails.depositAmount,\r\n            contractDetails.durationMonths,\r\n            contractDetails.startDate,\r\n            contractDetails.endDate,\r\n            contractDetails.status,\r\n            contractDetails.landlordSigned,\r\n            contractDetails.tenantSigned\r\n        );\r\n    }\r\n    \r\n    /**\r\n     * @dev Get property information\r\n     */\r\n    function getPropertyInfo() external view returns (string memory propertyAddress, string memory terms) {\r\n        return (contractDetails.propertyAddress, contractDetails.terms);\r\n    }\r\n    \r\n    /**\r\n     * @dev Get contract balance (deposit held)\r\n     */\r\n    function getBalance() external view returns (uint256) {\r\n        return address(this).balance;\r\n    }\r\n}\r\n",
  "sourcePath": "C:\\Users\\NABIL\\Desktop\\pfa\\blockchain\\contracts\\RentalContract.sol",
  "compiler": {
    "name": "solc",
    "version": "0.8.19+commit.7dd6d404.Emscripten.clang"
  },
  "schemaVersion": "3.4.16",
  "updatedAt": "2025-12-12T15:21:10.511Z",
  "networkType": "ethereum",
  "devdoc": {
    "details": "Smart contract for managing rental agreements between landlord and tenant",
    "kind": "dev",
    "methods": {
      "constructor": {
        "details": "Constructor to initialize the rental contract",
        "params": {
          "_depositAmount": "Security deposit amount in wei",
          "_durationMonths": "Contract duration in months",
          "_propertyAddress": "Physical address of the property",
          "_rentAmount": "Monthly rent amount in wei",
          "_tenant": "Address of the tenant",
          "_terms": "Contract terms and conditions"
        }
      },
      "getBalance()": {
        "details": "Get contract balance (deposit held)"
      },
      "getContractDetails()": {
        "details": "Get contract details"
      },
      "getPropertyInfo()": {
        "details": "Get property information"
      },
      "signByLandlord()": {
        "details": "Landlord signs the contract"
      },
      "signByTenant()": {
        "details": "Tenant signs the contract and pays deposit"
      },
      "terminateContract(bool)": {
        "details": "Terminate the contract",
        "params": {
          "_returnDeposit": "Whether to return the deposit to tenant"
        }
      }
    },
    "title": "RentalContract",
    "version": 1
  },
  "userdoc": {
    "kind": "user",
    "methods": {},
    "version": 1
  }
}